:100000000C9404010C94F2140C9423150C945415C4
:100010000C9485150C94B6150C94E7150C941816D1
:100020000C9449160C9435010C9435010C9435014F
:100030000C9435010C9435010C9435010C94350168
:100040000C9435010C94F7100C9435010C94350187
:100050000C9435010C9435010C9435010C94E51287
:100060000C9435010C94EF180C94C3190C943501C1
:100070000C9435010C9435010C9435010C94350128
:100080000C9425110C9435010C9435010C94350118
:100090000C941C190C940E1A0C9435010C94350117
:1000A0000C9435010C9435010C9453110C943501CA
:1000B0000C9435010C9435010C9435010C9481118C
:1000C0000C9435010C9435010C9435010C944919AC
:1000D0000C94591A0C9435010C9476190C94A41AAA
:1000E0000C94350100002100240027002A002D0077
:1000F0003000330001010000040107010A01000083
:100100002200250028002B002E00310034000201BF
:100110000000050108010B0100002000230026005B
:1001200029002C002F00320000010000030106010D
:10013000090105050505070508080808020202026D
:100140000A0A080804040404010101010101010173
:100150000303030303030303040707070C0C0C0C3E
:100160000C0C0C0C02020202060606060606060627
:100170000B0B0B0B0B0B0B0B0102102020080810B4
:100180002040102040800201020108040201010207
:1001900004081020408080402010080402018004E0
:1001A000020180402010080402010804020101023B
:1001B0000408102040800102040810204080000044
:1001C000090A02080B0C0D070603040100000000D9
:1001D000000000000000000000000000000000001F
:1001E0000000000000000000000011100F000000DF
:1001F00000000000000000000000000000000000FF
:1002000000000000D00F6D1B11241FBECFEFD1E204
:10021000DEBFCDBF00E00CBF13E0A0E0B2E0E8EA33
:10022000FEE300E00BBF02C007900D92A234B107BD
:10023000D9F71BE0A2E4B3E001C01D92A039B107D9
:10024000E1F712E0C8E0D2E000E006C02297010921
:10025000FE010BBF0E94391DC430D10780E00807A2
:10026000A9F70E9427180C94521F0C940000FC015F
:10027000DB0132812381948185813C9311962C93FB
:10028000119712969C93129713968C93139736811D
:1002900027819085818514963C93149715962C930D
:1002A000159716969C93169717968C93179788E038
:1002B00090E00895FC01DB0111962C91119730E03C
:1002C00040E050E0542F432F322F222712966C919A
:1002D000129770E080E090E0CB0177276627262B0D
:1002E000372B482B592B6C9170E080E090E0262B47
:1002F000372B482B592B13966C91139770E080E0A5
:1003000090E0962F882777276627262B372B482BB8
:10031000592B228333834483558315962C9115974B
:1003200030E040E050E0542F432F322F2227169622
:100330006C91169770E080E090E0CB0177276627FC
:10034000262B372B482B592B14966C91149770E061
:1003500080E090E0262B372B482B592B17968C9159
:1003600090E0A0E0B0E0B82FAA2799278827282B93
:10037000392B4A2B5B2B268337834087518788E0B4
:1003800090E0089580E092E00895AF92BF92CF92FE
:10039000DF92EF92FF920F931F93CF93DF935C0155
:1003A000FB01318120E0808190E0822B932BD501ED
:1003B00013969C938E93129782819381A481B58129
:1003C0008B010B5F1F4FE80166E070E026E0C22E54
:1003D000D12CE12CF12CC80ED91EEA1EFB1E04C044
:1003E000298129936F5F7F4F9B0140E050E02C15DE
:1003F0003D054E055F05A0F3AC014A5F5F4F4E0F10
:100400005F1F9A0121503040E9011882E5011D83E8
:100410000C83EA01C880D980EA80FB80BC01665F5A
:100420007F4FEC012996CE0FDF1F8B01CB01AA274E
:1004300097FDA095BA2F8C0D9D1DAE1DBF1D04C04C
:10044000298129930F5F1F4F980140E050E0281742
:1004500039074A075B07A0F3C60ED71EDF01AC0DB4
:10046000BD1D11971C92615070406E0F7F1FF501EA
:1004700077836683C601DF91CF911F910F91FF9023
:10048000EF90DF90CF90BF90AF9008958EE092E014
:1004900008958DEE92E00895AF92BF92CF92DF92D1
:1004A000EF92FF920F931F93CF93DF93EC01FB0129
:1004B000E080F18002811381AB014D5F5F4FFA0153
:1004C00024E030E0A4E0AA2EB12CC12CD12CAE0C3B
:1004D000BF1CC01ED11E04C0818181932F5F3F4F7E
:1004E000C901A0E0B0E08A159B05AC05BD05A0F3ED
:1004F00097012C5F3F4F620F731F61507040FB01EB
:1005000010825B834A83C901DF91CF911F910F91C4
:10051000FF90EF90DF90CF90BF90AF90089587E26B
:1005200092E00895FC01DB01328123819481858171
:100530003C9311962C93119712969C9312971396B5
:100540008C931397368127819085818514963C93EF
:10055000149715962C93159716969C9316971796A5
:100560008C93179788E090E00895FC01DB011196C9
:100570002C91119730E040E050E0542F432F322F60
:10058000222712966C91129770E080E090E0CB01E8
:1005900077276627262B372B482B592B6C9170E039
:1005A00080E090E0262B372B482B592B13966C912B
:1005B000139770E080E090E0962F882777276627D2
:1005C000262B372B482B592B228333834483558387
:1005D00015962C91159730E040E050E0542F432FB2
:1005E000322F222716966C91169770E080E090E0EB
:1005F000CB0177276627262B372B482B592B1496B0
:100600006C91149770E080E090E0262B372B482BFC
:10061000592B17968C9190E0A0E0B0E0B82FAA2754
:1006200099278827282B392B4A2B5B2B2683378346
:100630004087518788E090E0089587E392E008952D
:10064000AF92BF92CF92DF92EF92FF920F931F93E0
:10065000CF93DF937C01FB01818190E0A0E0B0E0CB
:10066000BA2FA92F982F8827228130E040E050E050
:10067000A90133272227822B932BA42BB52B208172
:1006800030E040E050E0822B932BA42BB52B23814C
:1006900030E040E050E0522F442733272227822BBE
:1006A000932BA42BB52BE7018A839B83AC83BD835B
:1006B000858190E0A0E0B0E0BA2FA92F982F88277D
:1006C000268130E040E050E0A90133272227822B29
:1006D000932BA42BB52B248130E040E050E0822BFB
:1006E000932BA42BB52B278130E040E050E0522F14
:1006F000442733272227822B932BA42BB52B8E83C1
:100700009F83A887B987818590E0A0E0B0E0BA2FE9
:10071000A92F982F8827228530E040E050E0A901DA
:1007200033272227822B932BA42BB52B208530E057
:1007300040E050E0822B932BA42BB52B238530E097
:1007400040E050E0522F442733272227822B932B5F
:10075000A42BB52B8A879B87AC87BD87848595851D
:10076000A685B7858F01015F1F4FE80160E170E04A
:1007700020E1A22EB12CC12CD12CA80EB91ECA1E6C
:10078000DB1E04C0298129936F5F7F4F9B0140E0EE
:1007900050E02A153B054C055D05A0F3AC01405F18
:1007A0005F4F4E0F5F1F9A0121503040E9011882C0
:1007B000E7011F870E87EA01A880B980CA80DB8025
:1007C000BC016C5E7F4FEC016396CE0FDF1F8B0187
:1007D000CB01AA2797FDA095BA2F8A0D9B1DAC1DB2
:1007E000BD1D04C0298129930F5F1F4F980140E070
:1007F00050E0281739074A075B07A0F38B010A0D61
:100800001B1DEF01C00FD11FDE0111971C9261501B
:1008100070406E0F7F1FF701718B608B898190E0B4
:10082000A0E0B0E0BA2FA92F982F88272A8130E0C6
:1008300040E050E0A90133272227822B932BA42BE1
:10084000B52B288130E040E050E0822B932BA42B85
:10085000B52B2B8130E040E050E0522F4427332766
:100860002227822B932BA42BB52BE7018A8B9B8B02
:10087000AC8BBD8B0C5F1F4FC801DF91CF911F91D7
:100880000F91FF90EF90DF90CF90BF90AF900895C1
:1008900083E592E00895FC0182819381909328087A
:1008A000809327088681978190932A08809329084E
:1008B000A685B7858C9180932E08A089B1898C91EB
:1008C00080932D08828593859093BE028093BD020C
:1008D000828993899093C2028093C1020895CF9236
:1008E000DF92EF92FF920F931F93CF93DF93EC0170
:1008F000E62ECA012C81222309F448C0DA01ED91C9
:10090000FC919E01255F3F4F0190F081E02DB901E0
:1009100019952FEF2D832E83EF82188689871A86EB
:10092000FE01379642E050E020E030E0BC016B5F12
:100930007F4F05C0A1912A0F311D4F5F5F4F641794
:100940007507C4F7FE01E80FF91F209523878C0176
:10095000095F1F4FCA80DB8035E0E32EF12CEC0EDF
:10096000FD1EC0E0D0E00EC0F60180819181D7016C
:100970006D917D01DC01ED91FC910190F081E02D04
:1009800019952196C017D1077CF302C000E010E052
:10099000C801DF91CF911F910F91FF90EF90DF90F1
:1009A000CF9008950F931F93CF93DF93EC018C01A9
:1009B0000A5F1F4FC8010E942003EC8DFD8DC80106
:1009C0001995DF91CF911F910F91089581E090E0EB
:1009D000089583E592E00895EF92FF920F931F939D
:1009E0000E942D1320913A0830913B0840913C0819
:1009F00050913D087B018C01E21AF30A040B150BA0
:100A00002091B9023091BA02442737FD4095542F06
:100A10002E153F054007510750F4209133083091BF
:100A200034082F5F3F4F309334082093330860938E
:100A30003A0870933B0880933C0890933D081F91BF
:100A40000F91FF90EF900895EF92FF920F931F93F5
:100A50000E942D1320913E0830913F08409140089C
:100A6000509141087B018C01E21AF30A040B150B2B
:100A70002091B9023091BA02442737FD4095542F96
:100A80002E153F054007510750F420913108309151
:100A900032082F5F3F4F3093320820933108609324
:100AA0003E0870933F0880934008909341081F913F
:100AB0000F91FF90EF900895AF92BF92CF92DF9287
:100AC000EF92FF920F931F93CF93DF938C01EB0173
:100AD000DC0112969C91129713968C911397988330
:100AE000898314966C91149715967C91DB01FD0116
:100AF00001900020E9F73197EA1BFB0BCF01A0E042
:100B0000B0E08A839B83AC83BD839E012A5F3F4F05
:100B1000C901AF010E94491F2A813B8146E0E42EB2
:100B2000F12CE20EF31EEC0EFD1EF80166817781BA
:100B3000DB01FD0101900020E9F73197EA1BFB0B77
:100B40005F01CC24DD24D701AD92BD92CD92DC9221
:100B500013978901065F1F4FC00FD11FCE01AF0150
:100B60000E94491FD7012D913C911197200F311FF1
:100B7000C901DF91CF911F910F91FF90EF90DF900E
:100B8000CF90BF90AF9008956F927F928F929F9277
:100B9000AF92BF92CF92DF92FF920F931F93CF93AA
:100BA000DF938C01EB01DC0112968C911297888304
:100BB00019821A821B826B0140E024E030E021C0E0
:100BC000842F90E0880F991F880F991FF801A78143
:100BD000B085A80FB91F6C9111965C911197129670
:100BE0009C91129713968C91D6016C9311965C93FD
:100BF000119712969C93129713968C932C5F3F4FEC
:100C00004F5FE4E0F0E0CE0EDF1ED80112968C912B
:100C100012974817A8F2FE01E20FF31F19968C9164
:100C200080832F5F3F4FDE01A20FB31F1C922F5F07
:100C30003F4FDE01A20FB31F1C922F5F3F4FDE011B
:100C4000A20FB31F1C922F5F3F4F6F0140E021C0E6
:100C5000842F90E0880F991F880F991FF801A685AF
:100C6000B785A80FB91F6C9111965C9111971296D8
:100C70009C91129713968C91D6016C9311965C936C
:100C8000119712969C93129713968C932C5F3F4F5B
:100C90004F5FE4E0F0E0CE0EDF1ED80119968C9194
:100CA00019974817A8F2FE01E20FF31F50968C9196
:100CB000509780832F5F3F4FFE01E20FF31F10829A
:100CC0002F5F3F4FFE01E20FF31F10822F5F3F4F58
:100CD000FE01E20FF31F10822F5F3F4FFF2433C04E
:100CE0005E01A20EB31E8F2D90E0880F991FD801D0
:100CF0005396ED91FC915497E80FF91F6081718133
:100D0000DB01FD0101900020E9F73197EA1BFB0BA5
:100D10003F0188249924D5016D927D928D929C92F9
:100D2000139754E0C52ED12CC20ED31E9E012C0D5C
:100D30003D1DC901AF010E94491FF501208131818C
:100D40002C0D3D1DF394D80150968C915097F816B8
:100D500038F2C901DF91CF911F910F91FF90DF9081
:100D6000CF90BF90AF909F908F907F906F9008959D
:100D7000CF93DF93FC01EB0162817381DB01FD0105
:100D800001900020E9F73197EA1BFB0B9F0140E03F
:100D900050E0DE012D933D934D935D93CD01AF0166
:100DA0000E94491F288139812C5F3F4FC901DF9183
:100DB000CF910895AF92BF92CF92DF92EF92FF92C0
:100DC0000F931F93CF93DF93EC018B013A812B811B
:100DD0009C818D81DB013C9311962C931197129687
:100DE0009C93129713968C9313973E812F8198852D
:100DF000898514963C93149715962C9315971696FF
:100E00009C93169717968C9317973A852B859C85FC
:100E10008D8518963C93189719962C9319971A96C6
:100E20009C931A971B968C936E857F85DB01FD0141
:100E300001900020E9F73197EA1BFB0B9F0140E08E
:100E400050E0D8011C962D933D934D935C931F97D2
:100E50009801205F3F4FC901AF010E94491FF8016F
:100E600024853585B0E1EB2EF12CE20EF31EE00E69
:100E7000F11E68897989DB01FD0101900020E9F705
:100E80003197EA1BFB0B5F01CC24DD24D701AD9227
:100E9000BD92CD92DC921397A4E1CA2ED12CC20E42
:100EA000D31E98012C0D3D1DC901AF010E94491FA1
:100EB000F701208131812C0D3D1D5A894B899C8978
:100EC0008D89F801E20FF31F50834183928383835E
:100ED0002C5F3F4FC901DF91CF911F910F91FF9080
:100EE000EF90DF90CF90BF90AF9008956F927F9278
:100EF0008F929F92AF92BF92CF92DF92EF92FF922A
:100F00000F931F93CF93DF93EC015B01DB010C91F7
:100F10008A81801760F4602F70E0660F771F660F7C
:100F2000771F8F8198850E94701E8F8398870A8310
:100F3000F50160E034E0C32ED12C8E010D5F1F4F10
:100F400045C0818190E0A0E0B0E0BA2FA92F982F92
:100F50008827228130E040E050E0A9013327222792
:100F6000822B932BA42BB52B208130E040E050E066
:100F7000822B932BA42BB52B238130E040E050E053
:100F8000522F442733272227822B932BA42BB52BB8
:100F90008B839C83AD83BE8384E090E0C80ED91E12
:100FA000862F90E0880F991F880F991F2F81388511
:100FB000280F391FD8016D907D908D909C90D9019C
:100FC0006D927D928D929C9213976F5F34968A8179
:100FD000681708F4B6CF85010C0D1D1DF80180803F
:100FE0008985881560F4682D70E0660F771F660F9D
:100FF000771F8E859F850E94701E8E879F8784E055
:1010000090E0C80ED91E8986F80160E08E01065F67
:101010001F4F45C0818190E0A0E0B0E0BA2FA92F1A
:10102000982F8827228130E040E050E0A901332743
:101030002227822B932BA42BB52B208130E040E07C
:1010400050E0822B932BA42BB52B238130E040E082
:1010500050E0522F442733272227822B932BA42B97
:10106000B52B8A879B87AC87BD87A4E0B0E0CA0E0A
:10107000DB1E862F90E0880F991F880F991F2E8501
:101080003F85280F391FD8016D907D908D909C90E1
:10109000D9016D927D928D929C9213976F5F3496D9
:1010A0008985681708F4B6CFF501EC0DFD1D0081A8
:1010B0008889801750F4602F70E0660F771F8B8946
:1010C0009C890E94701E8B8B9C8BF6013496088B3A
:1010D000772401E1802E912C8C0E9D1E41C0D501FC
:1010E000AE0FBF1FCD90DD90ED90FC90DF01149608
:1010F0003396EA0DFB1D8D019D01442737FD409578
:10110000542F2C0D3D1D4E1D5F1D04C08181819308
:101110000F5F1F4FB80180E090E0621773078407EC
:101120009507A0F3CA0EDB1EC5018C0D9D1D01970E
:10113000FC0110821197AA0DBB1DBA8BA98BF60179
:10114000872D90E0880F991F2B893C89280F391F24
:10115000D4018D919C91D90111969C938E93739497
:101160008889781608F4BBCFCF01DF91CF911F910A
:101170000F91FF90EF90DF90CF90BF90AF909F9036
:101180008F907F906F900895FC014281538164811C
:101190007581808191810E94EF1A089560913108D4
:1011A00070913208882777FD8095982F0E946F1CD8
:1011B0006093F3077093F4078093F5079093F60715
:1011C0006091330870913408882777FD8095982FB7
:1011D0000E946F1C6093F7077093F8078093F907DC
:1011E0009093FA078091010890910208DC01ED913B
:1011F000FC916091FF07709100084091FD075091AC
:10120000FE070190F081E02D199508956F927F926D
:101210008F929F92AF92BF92CF92DF92EF92FF9206
:101220000F931F9380919F0261E020E432E44FE02E
:1012300050E00E944A17AB01709324086093230882
:101240002091970230919802621773070CF43FC007
:10125000A0909902B0909A026A157B0524F0B09292
:101260002408A092230800D00F9260912308709167
:101270002408882777FD8095982F442737FD4095CF
:10128000542FCC24B7FCC094DC2C60902B087090B9
:101290002C08882477FC8094982CE090AB02F09086
:1012A000AC020027F7FC0095102FEDB7FEB7E182E6
:1012B000F2820383148386017501640153010E9445
:1012C000DE17709328086093270886E64EC0809149
:1012D000950290919602841795070CF04DC02091CD
:1012E0009B0230919C02241735070CF445C0A09056
:1012F0009D02B0909E02A416B50624F0B092240878
:10130000A092230800D00F926091230870912408C6
:10131000882777FD8095982F442737FD4095542FD7
:10132000CC24B7FCC094DC2C60902B0870902C0867
:10133000882477FC8094982CE090AB02F090AC026B
:101340000027F7FC0095102FEDB7FEB7E182F2827F
:101350000383148386017501640153010E94DE1723
:10136000709328086093270882E680932D080F90D9
:101370000F900F900F9004C0109228081092270829
:101380001F910F91FF90EF90DF90CF90BF90AF90A3
:101390009F908F907F906F9008956F927F928F9221
:1013A0009F92AF92BF92CF92DF92EF92FF920F93F4
:1013B0001F938091A10261E020E432E44FE050E00D
:1013C0000E944A1770932608609325082091A30273
:1013D0003091A402621773070CF43FC0A090A502DD
:1013E000B090A6026A157B0524F0B0922608A09260
:1013F000250800D00F926091250870912608882753
:1014000077FD8095982F442737FD4095542FCC24A5
:10141000B7FCC094DC2C60902B0870902C088824BA
:1014200077FC8094982CE090AB02F090AC020027FF
:10143000F7FC0095102FEDB7FEB7E182F28203832F
:10144000148386017501640153010E94DE177093B5
:101450002A08609329088CE646C02091A7023091A3
:10146000A802261737070CF445C0A090A902B09037
:10147000AA02A616B70624F0B0922608A092250864
:1014800000D00F926091250870912608882777FD7B
:101490008095982F442737FD4095542FCC24B7FCD6
:1014A000C094DC2C60902B0870902C08882477FC6A
:1014B0008094982CE090AB02F090AC020027F7FCEF
:1014C0000095102FEDB7FEB7E182F28203831483FB
:1014D00086017501640153010E94DE1770932A088A
:1014E0006093290882E780932E080F900F900F9049
:1014F0000F9004C010922A08109229081F910F9192
:10150000FF90EF90DF90CF90BF90AF909F908F9023
:101510007F906F9008958091B30260E070E00E9428
:101520009D138091AF0260E070E00E949D130895CA
:101530008091B10260E070E00E949D138091AD0245
:1015400060E070E00E949D1308950E948B0A0E9443
:10155000980A0895CF93DF938091270890912808E7
:101560002091290830912A08EC01C21BD30BD7FF28
:1015700002C0C0E0D0E0009711F40E94A50A80915B
:101580002D08863611F40E948B0A80912D08823630
:1015900011F40E94980A80912D08863689F4809172
:1015A0002E088C3669F46091270870912808809184
:1015B000B1020E949D138091AD02BE010E949D1355
:1015C00080912D08863689F480912E08823769F43F
:1015D00060912708709128088091AD020E949D13A8
:1015E0008091B102BE010E949D1380912D08823628
:1015F00089F480912E088C3669F4609127087091E7
:1016000028088091B3020E949D138091AF02BE0111
:101610000E949D1380912D08823689F480912E08B6
:10162000823769F460912708709128088091AF0291
:101630000E949D138091B302BE010E949D13809170
:101640002D088636A1F480912E08882381F46091BC
:101650002708709128088091B1020E949D13609123
:101660002708709128088091AD020E949D138091F7
:101670002D088236A1F480912E08882381F4609190
:101680002708709128088091B3020E949D136091F1
:101690002708709128088091AF020E949D13109234
:1016A0002E0810922D08DF91CF9108958091210886
:1016B000909122088130910521F40E9406090E9430
:1016C000CD090E94AA0A08956091BD027091BE02E0
:1016D00085E398E00E9480120895DB01FC01E75E3B
:1016E000FB4F20E030E04191519141155105B1F49B
:1016F000F901EE0FFF1FE80FF91FE75EFB4FB18303
:10170000A08323583F4F15963C932E931497089629
:1017100017969C938E93169781E008952F5F3F4F05
:101720002931310501F780E0089584E493E00E94B7
:10173000C4081092C0071092BF071092C2071092FF
:10174000C1071092C6071092C5071092C4071092E5
:10175000C3071092CA071092C90782E493E06BEFA7
:1017600077E00E946D0B8091C9079091CA0789317B
:101770009105ACF4FC01EE0FFF1FE357F84F23E097
:1017800038E0318320839C012C593F4F3093060869
:101790002093050801969093CA078093C90780910A
:1017A0009F0260E00E94EE168091A10260E00E941C
:1017B000EE168091B50261E00E94EE168091B502AE
:1017C00061E00E9412178091B10260E070E00E9417
:1017D0009D138091B30260E070E00E949D138091A0
:1017E000AD0260E070E00E949D138091AF0260E066
:1017F00070E00E949D1380912F0864E275E041E043
:1018000050E00E9478148091B7026CEE74E041E0E1
:1018100050E00E9478146091BB027091BC0285E395
:1018200098E00E94791285E398E06CED75E00E94E3
:10183000801208950F931F93DF93CF93CDB7DEB738
:101840002A970FB6F894DEBF0FBECDBF8C0187ED8F
:1018500092E09A8389831B821C821D821E821F82D2
:10186000188619861A86C80108966AE070E0AE01EB
:101870004F5F5F4F0E946F040E942D13F801E35FDA
:10188000FD4F60837183828393832A960FB6F89409
:10189000DEBF0FBECDBFCF91DF911F910F91089595
:1018A0008F929F92AF92BF92CF92DF92EF92FF9270
:1018B0000F931F93DF93CF93CDB7DEB728970FB663
:1018C000F894DEBF0FBECDBF8C0181E0D8011C961D
:1018D0008C938DEC92E09A83898389E1E82E84E0F1
:1018E000F82EE00EF11EBBE4AB2EB4E0BB2EA00E32
:1018F000B11EA8E08A2E912C800E911E6E010894D4
:10190000C11CD11CD701ED91FD917D013097C9F02B
:10191000848195819C838B83808191819E838D833B
:1019200082819381DC01ED91FC910480F581E02DB1
:10193000199598878F83C40160E070E0A6010E942A
:101940006F04EA14FB04F1F6FBE4EF2EF4E0FF2E43
:10195000E00EF11EEDE7AE2EE4E0BE2EA00EB11EAD
:1019600078E0C72ED12CC00ED11E8E010F5F1F4F05
:10197000F701A191B1917F011097E1F012968D913D
:101980009C9113979C838B8314968D919C911597B2
:101990009E838D83ED91FC9111970480F581E02D5C
:1019A000CD01199598878F83C60161E070E0A80189
:1019B0000E946F04EA14FB04D9F628960FB6F89437
:1019C000DEBF0FBECDBFCF91DF911F910F91FF9072
:1019D000EF90DF90CF90BF90AF909F908F90089541
:1019E000AF92BF92CF92DF92EF92FF920F931F932D
:1019F000CF93DF93EC015B010E942D1321E1C22EF6
:101A000022E0D22ECC0EDD1EF501E080F1800281B5
:101A100013810894E108F1080109110928EE33E067
:101A200040E050E00E94E81CE21AF30A040B150B98
:101A3000F601E082F18202831383CB5EDD4FF50174
:101A4000E480F5800681178120E03AEC4AE95BE307
:101A5000E20EF31E041F151F20E432E44FE050E0B5
:101A60000E94AA1CE61AF70A080B190BE882F982F1
:101A70000A831B83C601BE010E94B412DF91CF917D
:101A80001F910F91FF90EF90DF90CF90BF90AF909C
:101A90000895AF92BF92CF92DF92EF92FF920F9391
:101AA0001F93DF93CF93CDB7DEB72A970FB6F89485
:101AB000DEBF0FBECDBF5C016B0187ED92E09A8364
:101AC00089831B821C821D821E821F8218861986B2
:101AD0001A860E942D137B018C01F501E35FFD4FF7
:101AE00080819181A281B381E81AF90A0A0B1B0B4C
:101AF000CE010196B6010E945A01C801B70128EE35
:101B000033E040E050E00E94E81C7B018C018B81B7
:101B10009C81AD81BE81820F931FA41FB51F8B8353
:101B20009C83AD83BE83C801B70120E432E44FE05B
:101B300050E00E94AA1C9B01AC018F819885A98569
:101B4000BA85820F931FA41FB51F8F839887A9871B
:101B5000BA87C501BE016D5F7F4F0E94F00C0E94E5
:101B60002D13F501E357FB4F6083718382839383C9
:101B70002A960FB6F894DEBF0FBECDBFCF91DF918E
:101B80001F910F91FF90EF90DF90CF90BF90AF909B
:101B900008952F923F924F925F926F927F928F9211
:101BA0009F92AF92BF92CF92DF92EF92FF920F93EC
:101BB0001F93DF93CF93CDB7DEB760970FB6F8943E
:101BC000DEBF0FBECDBF988B8F870E942D136B0198
:101BD0007C01EF85F889E357FB4F80819181A281D9
:101BE000B381A7019601281B390B4A0B5B0BDA0165
:101BF000C901893F3AE2930730E0A30730E0B30719
:101C000028F0AF85B8891C961C921C97EF85F8893F
:101C1000E358FB4F80819181009781F0AF85B889AF
:101C2000AF56BB4F8D919D910D90BC91A02D8C1501
:101C30009D05AE05BF0510F41182108215E8612ED6
:101C400014E0712EEF85F8896E0E7F1E8F01035808
:101C50001B4FB1E88B2EB4E09B2E8E0E9F1EA9E188
:101C60004A2EA2E05A2E4E0E5F1EEA56FB4FFA8312
:101C7000E9832F8538892B563B4F3C832B834F8537
:101C8000588947575B4F5E834D838F85988983576B
:101C90009B4F98878F837FE7A72E74E0B72EAF8581
:101CA000B889AA0EBB1E63E8262E64E0362E2A0EE3
:101CB0003B1EAF56BB4FBA87A987A70196012C5E82
:101CC0003F4F4F4F5F4F2B873C874D875E87C80143
:101CD0000F851889988B8F87D80112968D919C91CA
:101CE0001397DC01ED91FC910680F781E02D1995A9
:101CF0009C0197FDF6C0F30180819181820F931FB3
:101D000091838083AF85B8894D915C91119746305E
:101D10005105C9F4F10180819181F801E80FF91FA3
:101D2000E75EFD4F20830196D10111969C938E931F
:101D3000F50180819181019791838083009761F6FD
:101D4000E7E0F0E04AC041155105A9F42F3F310505
:101D500019F6E1E0F0E0AF85B889ED93FC932B85AF
:101D60003C854D855E85A985BA852D933D934D9320
:101D70005C931397B1CF4130510581F42F3F31056A
:101D800039F422E030E0EF85F88931832083A4CF55
:101D9000AF85B88911961C921E929ECF4230510594
:101DA00071F4F40131832083E3E0F0E0AF85B8897A
:101DB000ED93FC93D30111963C932E938DCF43303A
:101DC000510589F4322F2227F40180819181280F57
:101DD000391F31832083E4E0F0E0AF85B8891196A4
:101DE000FC93EE9379CF4430510551F4D50111960F
:101DF0003C932E93F10111821082E5E0F0E0EDCFEB
:101E000045305105D1F4322F2227D5018D919C9177
:101E10001197280F391F11963C932E9346E050E0FE
:101E2000EF85F889518340832115310509F054CF9E
:101E300087E090E0918380834FCF4730510509F0D0
:101E40004BCF60E071E00E94D51C8F3F910509F0F7
:101E500043C0D401ED91FC9111973097A1F4C801D2
:101E60000E941A0CC8010E94500CED81FE81C082B4
:101E7000D182E282F382AF81B885CD92DD92ED927C
:101E8000FC92139729C0EA30F10529F4C801B20188
:101E90000E94490D21C0E430F10551F489819A81F5
:101EA000B2010E94760721E0EB81FC81208314C0FF
:101EB000E456F040EE0FFF1FE00FF11FE55BFB4F14
:101EC00080819181009741F0DC01ED91FC910190BE
:101ED000F081E02DB2011995EF85F8891182108209
:101EE000FBCE188B0F87D8011C968C911C978823EA
:101EF00009F107571B4FF80180819181A281B381BD
:101F0000A7019601281B390B4A0B5B0BDA01C901AB
:101F1000853C39E0930730E0A30730E0B30750F089
:101F20008F8598890E941A0CD801CD92DD92ED928E
:101F3000FC92139760960FB6F894DEBF0FBECDBF2C
:101F4000CF91DF911F910F91FF90EF90DF90CF9095
:101F5000BF90AF909F908F907F906F905F904F90C9
:101F60003F902F90089582E493E00E94C90D8091E4
:101F7000C1029091C202209138083091390882172D
:101F8000930739F02091BF023091C0028217930766
:101F900011F40E94560B0E94640B0E94CE08089513
:101FA00087EC92E0909343038093420380E19BE0AF
:101FB000909345038093440380E091EEA0E0B0E06D
:101FC0008093460390934703A0934803B09349033B
:101FD00081EE92E090934B0380934A0384E493E074
:101FE00090934D0380934C0310924E0387EE92E042
:101FF0009093D9078093D8078DE093E09093EE07F4
:102000008093ED0787E193E09093F2078093F107C7
:102010008DE692E09093FC078093FB0781EF97E0B9
:102020009093FE078093FD0781E293E0909304086C
:10203000809303088BE293E090930A088093090849
:102040008EE792E090930808809307088BE494E071
:102050009093200880931F0885E398E00E94AF11B9
:102060000895EF92FF920F931F93CF93DF93EB01AD
:102070007A018C01DC01AD52B74F8C9187FF03C010
:102080001982188237C0C801880F991F800F911FCD
:10209000880F991F880F991F2C91332727FD3095A2
:1020A000280F391F4091420850E02417350714F5D6
:1020B0002C91332727FD3095280F391FF901EE0F9A
:1020C000FF1FE20FF31FED5BF74F208126FF12C0C9
:1020D0002C91332727FD3095280F391FF901EE0F7A
:1020E000FF1FE20FF31FED5BF74F80818F7360E0FE
:1020F0000E941217F801ED52F74F80818F5F8083A5
:10210000C801880F991F800F911F880F991F880F92
:10211000991F2081332727FD3095280F391F4091C3
:10212000420850E0241735070CF053C020812C30B2
:102130000CF04FC0488159812081332727FD30950D
:10214000280F391FD901AA0FBB1FA20FB31FAD5B08
:10215000B74F11962D913C911297420F531FD70103
:1021600011965C934E932081332727FD3095280FDD
:10217000391FD901AA0FBB1FA20FB31FAD5BB74F09
:102180002C9126FF2DC02081332727FD3095280F65
:10219000391FF901EE0FFF1FE20FF31FED5BF74F41
:1021A00080818F7361E00E9412171AC080E49CE95D
:1021B000F7019183808307C0888199810496D701B4
:1021C00011969C938E93F801ED52F74F8FEF808319
:1021D00007C088819981BCE984349B0738F3ECCF30
:1021E000DF91CF911F910F91FF90EF9008951F9273
:1021F0000F920FB60F920BB60F9211242F933F93AD
:102200004F935F936F937F938F939F93AF93BF93FE
:10221000EF93FF9381E090E064E870E048E850E0DD
:102220000E943110FF91EF91BF91AF919F918F91DB
:102230007F916F915F914F913F912F910F900BBEC6
:102240000F900FBE0F901F9018951F920F920FB610
:102250000F920BB60F9211242F933F934F935F93DE
:102260006F937F938F939F93AF93BF93EF93FF935E
:1022700082E090E064E970E048E950E00E943110AB
:10228000FF91EF91BF91AF919F918F917F916F914E
:102290005F914F913F912F910F900BBE0F900FBE0A
:1022A0000F901F9018951F920F920FB60F920BB6BA
:1022B0000F9211242F933F934F935F936F937F93CC
:1022C0008F939F93AF93BF93EF93FF9383E090E03F
:1022D00064EA70E048EA50E00E943110FF91EF910B
:1022E000BF91AF919F918F917F916F915F914F912E
:1022F0003F912F910F900BBE0F900FBE0F901F902C
:1023000018951F920F920FB60F920BB60F921124D1
:102310002F933F934F935F936F937F938F939F93ED
:10232000AF93BF93EF93FF9380E090E064E271E09E
:1023300048E251E00E943110FF91EF91BF91AF91BF
:102340009F918F917F916F915F914F913F912F91CD
:102350000F900BBE0F900FBE0F901F901895FC01B1
:1023600080914208803390F480838F5F809342088D
:10237000808190E0FC01EE0FFF1FE80FF91FED5B7D
:10238000F74F88EB9BE09283818308958FEF8083E2
:102390000895DF92EF92FF920F931F93CF93DF93F5
:1023A000EC01D62E8A0179018881803308F093C030
:1023B000862F61E00E94EE164881842F90E0FC0198
:1023C000EE0FFF1FE80FF91FED5BF74F9D2D9F7379
:1023D0008081807C892B808380E292E0801B910B3E
:1023E00024E030E0B9010E94D51C698380E699E0C1
:1023F0008E199F09B9010E94D51C6A83842F6CE055
:102400000E94C91C90E09C01220F331F280F391F26
:10241000220F331F220F331F40E050E0BA01620F3A
:10242000731FFB01EE0FFF1FE60FF71FED5BF74F6A
:10243000608166FD44C04F5F5F4F4C30510571F7BE
:1024400053C01092800082E080938100109285003A
:1024500010928400B19A80916F00826080936F0027
:102460002EC08230910569F41092900082E0809332
:102470009100109295001092940088BB8093710097
:102480001EC08330910569F41092A00082E0809311
:10249000A1001092A5001092A40089BB8093720045
:1024A0000EC0009761F41092200182E08093210118
:1024B00010922501109224018ABB809373008881B9
:1024C00090E0FC01EE0FFF1FE80FF91FED5BF74FE7
:1024D0008081806480838881DF91CF911F910F91EB
:1024E000FF90EF90DF9008958130910509F0B9CF0A
:1024F000A8CF40E252E020E639E00E94C9110895D9
:10250000FC012081203378F54181552747FD509506
:1025100088E890E0841B950B880F991F880F991FFE
:102520006817790784F04281552747FD509588E563
:1025300092E0841B950B880F991F880F991F6817CD
:1025400079070CF4CB014FB7F89430E0F901EE0FA6
:10255000FF1FE20FF31FED5BF74F0297880F991FE4
:10256000928381834FBF0895CF92DF92EF92FF92C3
:102570000F931F93CF93DF93EC016B01FB016081FD
:1025800071818281938120E03AEC4AE95BE30E9409
:10259000E81C7B018C0188819981AA81BB81820F13
:1025A000931FA41FB51F88839983AA83BB83F60159
:1025B000E082F18202831383DF91CF911F910F910B
:1025C000FF90EF90DF90CF9008951F920F920FB67B
:1025D0000F9211242F933F938F939F93AF93BF93A9
:1025E0008091DB089091DC08A091DD08B091DE08B5
:1025F0003091DF080196A11DB11D232F2D5F2D37CE
:1026000020F02D570196A11DB11D2093DF08809366
:10261000DB089093DC08A093DD08B093DE0880917E
:10262000D7089091D808A091D908B091DA080196FE
:10263000A11DB11D8093D7089093D808A093D90805
:10264000B093DA08BF91AF919F918F913F912F91F5
:102650000F900FBE0F901F9018958FB7F894209190
:10266000DB083091DC084091DD085091DE088FBF17
:10267000B901CA010895789484B5826084BD84B597
:10268000816084BD85B5826085BD85B5816085BD6D
:10269000EEE6F0E0808181608083E1E8F0E0108286
:1026A000808182608083808181608083E0E8F0E0C7
:1026B000808181608083E1EBF0E0808184608083B1
:1026C000E0EBF0E0808181608083E1E9F0E08081EF
:1026D00082608083808181608083E0E9F0E0808196
:1026E00081608083E1EAF0E0808182608083808184
:1026F00081608083E0EAF0E0808181608083E1E2B4
:10270000F1E0808182608083808181608083E0E26B
:10271000F1E0808181608083EAE7F0E0808184607D
:1027200080838081826080838081816080838081DA
:10273000806880831092C10008951F93CF93DF9328
:10274000182FEB0161E00E94EE16209709F4C5C036
:10275000CF3FD10509F4C4C0E12FF0E0E254FE4FB1
:10276000E491E93009F466C0EA30B0F4E430F1F104
:10277000E53040F4E23059F1E33070F5E13009F032
:10278000A9C020C0E73009F443C0E83008F048C0D1
:10279000E63009F09FC034C0ED3009F473C0EE306C
:1027A00038F4EB3009F45AC0EC3008F061C04CC08A
:1027B000E03109F47BC0E13109F482C0EF3009F067
:1027C00089C06AC084B5806884BDC7BD8DC084B52A
:1027D000806284BDC8BD88C080918000806880937D
:1027E0008000D0938900C09388007EC080918000D3
:1027F000806280938000D0938B00C0938A0074C065
:102800008091B00080688093B000C093B3006CC02A
:102810008091B00080628093B000C093B40064C027
:1028200080919000806880939000D0939900C0932D
:1028300098005AC080919000806280939000D0935D
:102840009B00C0939A0050C0809190008860809354
:102850009000D0939D00C0939C0046C08091A00042
:1028600080688093A000D093A900C093A8003CC0CA
:102870008091A00080628093A000D093AB00C093B1
:10288000AA0032C08091A00088608093A000D093FD
:10289000AD00C093AC0028C0809120018068809377
:1028A0002001D0932901C09328011EC080912001EE
:1028B000806280932001D0932B01C0932A0114C021
:1028C00080912001886080932001D0932D01C093D6
:1028D0002C010AC0C038D1051CF4812F60E002C071
:1028E000812F61E00E941217DF91CF911F9108950F
:1028F000883008F076C0E82FF0E0EE0FFF1FE052BE
:10290000F74F71836083843029F1853038F4823049
:1029100069F0833098F48130B9F53EC0863009F40F
:1029200047C0863020F1873079F54FC0809169002B
:102930008C7F842B80936900E89A089580916900C8
:10294000440F551F440F551F837F842B80936900CC
:10295000E99A08958091690074E0440F551F7A95B3
:10296000E1F78F7C842B80936900EA9A0895809127
:10297000690066E0440F551F6A95E1F78F73842B59
:1029800080936900EB9A089580916A008C7F842B74
:1029900080936A00EC9A089580916A00440F551F55
:1029A000440F551F837F842B80936A00ED9A08950E
:1029B00080916A0024E0440F551F2A95E1F78F7C2F
:1029C000842B80936A00EE9A089580916A0096E0C5
:1029D000440F551F9A95E1F78F73842B80936A00FB
:1029E000EF9A08951F920F920FB60F920BB60F92A7
:1029F00011242F933F934F935F936F937F938F9304
:102A00009F93AF93BF93EF93FF938091E4089091CE
:102A1000E508009729F0E091E408F091E5081995A0
:102A2000FF91EF91BF91AF919F918F917F916F91A6
:102A30005F914F913F912F910F900BBE0F900FBE62
:102A40000F901F9018951F920F920FB60F920BB612
:102A50000F9211242F933F934F935F936F937F9324
:102A60008F939F93AF93BF93EF93FF938091E6086B
:102A70009091E708009729F0E091E608F091E708C7
:102A80001995FF91EF91BF91AF919F918F917F9198
:102A90006F915F914F913F912F910F900BBE0F90CF
:102AA0000FBE0F901F9018951F920F920FB60F92A6
:102AB0000BB60F9211242F933F934F935F936F9315
:102AC0007F938F939F93AF93BF93EF93FF938091E7
:102AD000E8089091E908009729F0E091E808F09162
:102AE000E9081995FF91EF91BF91AF919F918F9157
:102AF0007F916F915F914F913F912F910F900BBEFE
:102B00000F900FBE0F901F9018951F920F920FB647
:102B10000F920BB60F9211242F933F934F935F9315
:102B20006F937F938F939F93AF93BF93EF93FF9395
:102B30008091EA089091EB08009729F0E091EA086B
:102B4000F091EB081995FF91EF91BF91AF919F9193
:102B50008F917F916F915F914F913F912F910F9046
:102B60000BBE0F900FBE0F901F9018951F920F92E3
:102B70000FB60F920BB60F9211242F933F934F93E2
:102B80005F936F937F938F939F93AF93BF93EF93D5
:102B9000FF938091E0089091E108009729F0E0917F
:102BA000E008F091E1081995FF91EF91BF91AF9185
:102BB0009F918F917F916F915F914F913F912F9155
:102BC0000F900BBE0F900FBE0F901F9018951F9285
:102BD0000F920FB60F920BB60F9211242F933F93C3
:102BE0004F935F936F937F938F939F93AF93BF9315
:102BF000EF93FF938091E2089091E308009729F00A
:102C0000E091E208F091E3081995FF91EF91BF91EF
:102C1000AF919F918F917F916F915F914F913F9174
:102C20002F910F900BBE0F900FBE0F901F90189515
:102C30001F920F920FB60F920BB60F9211242F9383
:102C40003F934F935F936F937F938F939F93AF9334
:102C5000BF93EF93FF938091EC089091ED0800975C
:102C600029F0E091EC08F091ED081995FF91EF91B2
:102C7000BF91AF919F918F917F916F915F914F9194
:102C80003F912F910F900BBE0F900FBE0F901F9092
:102C900018951F920F920FB60F920BB60F92112438
:102CA0002F933F934F935F936F937F938F939F9354
:102CB000AF93BF93EF93FF938091EE089091EF084D
:102CC000009729F0E091EE08F091EF081995FF9137
:102CD000EF91BF91AF919F918F917F916F915F9194
:102CE0004F913F912F910F900BBE0F900FBE0F9001
:102CF0001F901895893009F449C08A30A0F48430B7
:102D000051F1853040F4823079F1833000F5813023
:102D100009F063C026C0873079F1883098F5863095
:102D200009F05BC025C08D3009F442C08E3028F414
:102D30008B30B1F18C30C0F52DC0803109F442C028
:102D4000813109F445C08F3009F047C037C0809108
:102D500080008F7703C0809180008F7D80938000FA
:102D6000089584B58F7702C084B58F7D84BD0895A2
:102D70008091B0008F7703C08091B0008F7D8093E9
:102D8000B0000895809190008F7707C080919000E7
:102D90008F7D03C080919000877F8093900008957D
:102DA0008091A0008F7707C08091A0008F7D03C025
:102DB0008091A000877F8093A000089580912001DA
:102DC0008F7703C0809120018F7D8093200108952B
:102DD00080912001877F80932001089590E0FC017D
:102DE000E858FE4F2491FC01EE5CFE4FE491EE2387
:102DF000C1F0F0E0EE0FFF1FEC51FF4F8591949171
:102E0000DC01662341F49FB7F8948C9120958223CE
:102E10008C939FBF08959FB7F8948C91822B8C93CD
:102E20009FBF08950F931F93DF93CF930F92CDB75A
:102E3000DEB7282F30E0F901E254FE4F8491F9010A
:102E4000E858FE4F14912E5C3E4FF9010491002387
:102E5000D9F0882321F069830E947A166981E02FD6
:102E6000F0E0EE0FFF1FE250FF4F85919491DC01DF
:102E70009FB7F894662321F48C911095812302C0AA
:102E80008C91812B8C939FBF0F90CF91DF911F91DD
:102E90000F9108958F929F92AF92BF92CF92DF923F
:102EA000EF92FF920F931F9390E0FC01E858FE4FC2
:102EB00094908E5C9E4FFC01E490662311F488246C
:102EC00001C0892CCA01B90120E83EE340E050E08E
:102ED0000E94AA1C0E94E81C59016A0180E090E04F
:102EE000DC016E2D70E0FB01EE0FFF1FE85EFE4F70
:102EF0002591349109C08A159B05AC05BD0509F4DF
:102F00004DC00196A11DB11DF9014081492148150F
:102F100091F30AC08A159B05AC05BD0509F43EC0B6
:102F20000196A11DB11D07C0660F771F685E7E4F19
:102F3000FB0125913491F90140814921481551F750
:102F400020E030E0A901FB01659174910FC0790187
:102F50008A01E80EF91E0A1F1B1FEA14FB040C0568
:102F60001D05E1F02F5F3F4F4F4F5F4FFB01E081A9
:102F7000E921E81561F3CA01B90128E032E540E032
:102F800050E00E94AA1C6058714C8F4F9F4F20E860
:102F90003EE340E050E00E94E81C03C020E030E047
:102FA000A901B901CA011F910F91FF90EF90DF9025
:102FB000CF90BF90AF909F908F9008952F923F92A7
:102FC0004F925F926F927F928F929F92AF92BF9239
:102FD000CF92DF92EF92FF920F931F93DF93CF93E5
:102FE000CDB7DEB73B014C0119012A016E897F89FB
:102FF000888D998D6A197B098C099D09621A730A5B
:10300000840A950AA40193010E94AA1CE218F308FD
:1030100004091509A80197010E940A1D2A0D3B1DEC
:103020004C1D5D1DB901CA01CF91DF911F910F9118
:10303000FF90EF90DF90CF90BF90AF909F908F90D8
:103040007F906F905F904F903F902F900895CF9317
:10305000DF930E943B130E94950BC2EAD9E10E94C4
:10306000B30F2097E1F30E94A219F9CFFC018485E8
:103070009585FC01E05CFF4F208131818E5B9F4F85
:10308000FC0180819181281B390B2F733070C9019D
:103090000895FC0184859585FC01E05CFF4F40812B
:1030A0005181FC01EE5BFF4F2081318142175307B4
:1030B00041F00190F081E02DE80FF91F208130E010
:1030C00002C02FEF3FEFC9010895FC01848595856B
:1030D000FC01E05CFF4F40815181FC01EE5BFF4F42
:1030E000208131814217530771F0A081B181A80F6F
:1030F000B91F2C918081918101968F73907091837B
:10310000808330E002C02FEF3FEFC9010895DC015A
:103110001E968D919C911F97FC01E05CFF4F8E5B8A
:103120009F4F40815181DC012D913C9111974217B5
:103130005307B9F708951F93FC01162F268537858D
:10314000D901A05CBF4F8D919C91019660E470E025
:103150000E94D51CD901AE5BBF4F4D915C91119778
:1031600084179507D1F3D901A05CBF4F0D90BC9196
:10317000A02DA20FB31F1C93A685B785A05CBF4FDF
:1031800011969C938E93A689B7892C9181E090E04B
:10319000058C02C0880F991F0A94E2F7282B2C9304
:1031A00081E090E01F910895FB01E05CFF4F2081DA
:1031B00031812F5F3F4F2F733070DB01AE5BBF4F0C
:1031C0004D915C9111972417350739F0A081B18199
:1031D000A60FB71F8C9331832083089508951F9203
:1031E0000F920FB60F920BB60F9211242F933F93AD
:1031F0004F935F936F937F938F939F93AF93BF93FF
:10320000EF93FF938091C60060EF78E00E94D4189E
:10321000FF91EF91BF91AF919F918F917F916F91AE
:103220005F914F913F912F910F900BBE0F900FBE6A
:103230000F901F90189508951F920F920FB60F923E
:103240000BB60F9211242F933F934F935F936F937D
:103250007F938F939F93AF93BF93EF93FF9380914F
:10326000CE0068E779E00E94D418FF91EF91BF91FA
:10327000AF919F918F917F916F915F914F913F910E
:103280002F910F900BBE0F900FBE0F901F901895AF
:1032900008951F920F920FB60F920BB60F92112442
:1032A0002F933F934F935F936F937F938F939F934E
:1032B000AF93BF93EF93FF938091D60060E07AE0E5
:1032C0000E94D418FF91EF91BF91AF919F918F9180
:1032D0007F916F915F914F913F912F910F900BBE16
:1032E0000F900FBE0F901F90189508951F920F9288
:1032F0000FB60F920BB60F9211242F933F934F935B
:103300005F936F937F938F939F93AF93BF93EF934D
:10331000FF938091360168E87AE00E94D418FF910B
:10332000EF91BF91AF919F918F917F916F915F913D
:103330004F913F912F910F900BBE0F900FBE0F90AA
:103340001F90189580E19BE00E943618009711F0BD
:103350000E94EE188FE29BE00E943618009711F051
:103360000E941B198EE49BE00E943618009711F012
:103370000E9448198DE69BE00E943618009711F0D4
:103380000E94751908951F920F920FB60F920BB6F7
:103390000F9211242F933F935F936F937F938F939B
:1033A0009F93AF93BF93EF93FF9320917409309154
:1033B000750980917609909177092817390731F4BA
:1033C0008091C1008F7D8093C10016C0E091760985
:1033D000F0917709EC5CF64F20818091760990910D
:1033E0007709019660E470E00E94D51C90937709FC
:1033F000809376092093C600FF91EF91BF91AF9122
:103400009F918F917F916F915F913F912F910F903D
:103410000BBE0F900FBE0F901F9018951F920F922A
:103420000FB60F920BB60F9211242F933F935F9319
:103430006F937F938F939F93AF93BF93EF93FF937C
:103440002091FC093091FD098091FE099091FF09BE
:103450002817390731F48091C9008F7D8093C90006
:1034600016C0E091FE09F091FF09E454F64F208167
:103470008091FE099091FF09019660E470E00E943E
:10348000D51C9093FF098093FE092093CE00FF91F5
:10349000EF91BF91AF919F918F917F916F915F91CC
:1034A0003F912F910F900BBE0F900FBE0F901F906A
:1034B00018951F920F920FB60F920BB60F92112410
:1034C0002F933F935F936F937F938F939F93AF93CC
:1034D000BF93EF93FF932091840A3091850A8091E6
:1034E000860A9091870A2817390731F48091D10014
:1034F0008F7D8093D10016C0E091860AF091870AF3
:10350000EC5BF54F20818091860A9091870A0196A5
:1035100060E470E00E94D51C9093870A8093860A2D
:103520002093D600FF91EF91BF91AF919F918F9122
:103530007F916F915F913F912F910F900BBE0F90F4
:103540000FBE0F901F9018951F920F920FB60F92FB
:103550000BB60F9211242F933F935F936F937F933A
:103560008F939F93AF93BF93EF93FF9320910C0B97
:1035700030910D0B80910E0B90910F0B281739078E
:1035800031F4809131018F7D8093310116C0E0913B
:103590000E0BF0910F0BE453F54F208180910E0B31
:1035A00090910F0B019660E470E00E94D51C9093FF
:1035B0000F0B80930E0B20933601FF91EF91BF917B
:1035C000AF919F918F917F916F915F913F912F91DB
:1035D0000F900BBE0F900FBE0F901F901895DF92AB
:1035E000EF92FF920F931F93CF93DF93EC017A0139
:1035F0008B01DD24D394403081EE580780E06807CA
:1036000080E0780749F4DD24EC89FD89108260E8C8
:1036100074E88EE190E00FC0EC89FD8981E090E0D4
:103620000E8C02C0880F991F0A94E2F7808360E035
:1036300079E08DE390E0A80197010E94E81C2150F9
:10364000304040405040569547953795279580E14A
:103650002030380710F0DD20B1F6E889F989308391
:10366000EA89FB892083EE89FF89408181E090E02F
:103670009C010A8C02C0220F331F0A94E2F7422BEE
:103680004083EE89FF8940819C010B8C02C0220F90
:10369000331F0A94E2F7422B4083EE89FF89408171
:1036A0009C010C8C02C0220F331F0A94E2F7422BBC
:1036B0004083EE89FF8920810D8C02C0880F991FFD
:1036C0000A94E2F7809582238083DF91CF911F9146
:1036D0000F91FF90EF90DF9008951F93CF93DF93AA
:1036E0001092130B1092120B88EE93E0A0E0B0E062
:1036F0008093140B9093150BA093160BB093170B9C
:10370000E2E1FBE025E333E03293229340EF58E01F
:103710005587448744E359E05787468745EC50E096
:10372000518B408B44EC50E0538B428B40EC50E08B
:10373000558B448B41EC50E0578B468B46EC50E068
:10374000518F408F14E0128F73E0738F67E0648FA6
:1037500055E0558F41E0468F1092320B1092310B9D
:103760008093330B9093340BA093350BB093360BAF
:10377000E1E3FBE032932293C8E7D9E0D587C48721
:10378000CCEBD9E0D787C687CDECD0E0D18BC08B0E
:10379000CCECD0E0D38BC28BC8ECD0E0D58BC48B03
:1037A000C9ECD0E0D78BC68BCEECD0E0D18FC08FE8
:1037B000128F738F648F558F468F1092510B10921A
:1037C000500B8093520B9093530BA093540BB093D8
:1037D000550BE0E5FBE032932293C0E0DAE0D587B9
:1037E000C487C4E4DAE0D787C687C5EDD0E0D18BC3
:1037F000C08BC4EDD0E0D38BC28BC0EDD0E0D58BB5
:10380000C48BC1EDD0E0D78BC68BC6EDD0E0D18F95
:10381000C08F128F738F648F558F468F1092700BED
:1038200010926F0B8093710B9093720BA093730B9C
:10383000B093740BEFE6FBE03293229388E89AE0B2
:10384000958784878CEC9AE09787868785E391E05B
:10385000918B808B84E391E0938B828B80E391E06A
:10386000958B848B81E391E0978B868B86E391E047
:10387000918F808F128F738F648F558F468FDF915A
:10388000CF911F910895CF92DF92EF92FF920F9305
:103890001F93CF93DF936C017B018A01C0E0D0E0DE
:1038A0000FC0D7016D917D01D601ED91FC91019082
:1038B000F081E02DC6011995C80FD91F01501040A5
:1038C0000115110571F7CE01DF91CF911F910F9175
:1038D000FF90EF90DF90CF900895E89409C097FB98
:1038E0003EF490958095709561957F4F8F4F9F4FD7
:1038F0009923A9F0F92F96E9BB279395F69587951B
:1039000077956795B795F111F8CFFAF4BB0F11F4DD
:1039100060FF1BC06F5F7F4F8F4F9F4F16C0882384
:1039200011F096E911C0772321F09EE8872F762FBA
:1039300005C0662371F096E8862F70E060E02AF0FB
:103940009A95660F771F881FDAF7880F96958795E7
:1039500097F90895629FD001739FF001829FE00D57
:10396000F11D649FE00DF11D929FF00D839FF00DFE
:10397000749FF00D659FF00D9927729FB00DE11DAA
:10398000F91F639FB00DE11DF91FBD01CF01112487
:103990000895991B79E004C0991F961708F0961BAB
:1039A000881F7A95C9F78095089597FB092E0726F9
:1039B0000AD077FD04D049D006D000201AF47095C3
:1039C00061957F4F0895F6F7909581959F4F0895E3
:1039D000A1E21A2EAA1BBB1BFD010DC0AA1FBB1F13
:1039E000EE1FFF1FA217B307E407F50720F0A21B85
:1039F000B30BE40BF50B661F771F881F991F1A94F2
:103A000069F760957095809590959B01AC01BD011B
:103A1000CF01089597FB092E05260ED057FD04D03F
:103A2000D7DF0AD0001C38F4509540953095219589
:103A30003F4F4F4F5F4F0895F6F7909580957095E3
:103A400061957F4F8F4F9F4F0895AA1BBB1B51E17C
:103A500007C0AA1FBB1FA617B70710F0A61BB70BFE
:103A6000881F991F5A95A9F780959095BC01CD01A3
:103A700008950790F691E02D1994CF93DF9382304B
:103A8000910510F482E090E0E0918E0BF0918F0BA5
:103A900040E050E020E030E026C06081718168178E
:103AA0007907E0F06817790781F482819381211505
:103AB000310531F0D90113969C938E9312972BC048
:103AC00090938F0B80938E0B26C04115510519F0F2
:103AD0006417750718F4AB01E901DF019F017281DA
:103AE0006381E72FF62F3097C1F64115510501F19B
:103AF000481B590B4430510580F412968D919C91CE
:103B00001397209719F09B838A8304C090938F0B9F
:103B100080938E0BFD01329646C0FD01E40FF51F28
:103B2000819391934250504011965C934E933BC0C9
:103B300020918C0B30918D0B2115310541F4209192
:103B400091023091920230938D0B20938C0B209137
:103B50009302309194022115310541F42DB73EB7FF
:103B600040918F0250919002241B350BE0918C0BF9
:103B7000F0918D0BE217F307A0F42E1B3F0B2817D3
:103B8000390778F0AC014E5F5F4F2417350748F0D6
:103B90004E0F5F1F50938D0B40938C0B819391932D
:103BA00002C0E0E0F0E0CF01DF91CF910895CF9324
:103BB000DF93009709F491C0FC01329713821282BF
:103BC00060918E0B70918F0B6115710581F42081CE
:103BD0003181280F391F80918C0B90918D0B8217AA
:103BE000930799F5F0938D0BE0938C0B76C0DB0176
:103BF00080E090E002C0CD01D901AE17BF0748F4C4
:103C000012962D913C91139721153105A1F7CD0105
:103C100021C0B383A283EF01499159919E01240FE2
:103C2000351FA217B30779F42D913C911197240FFA
:103C3000351F2E5F3F4F3183208312962D913C918B
:103C4000139733832283009729F4F0938F0BE0932B
:103C50008E0B43C0DC011396FC93EE9312974D91AB
:103C60005D91A40FB51FEA17FB0769F4208131812C
:103C7000240F351F2E5F3F4FEC01398328832281AB
:103C800033813B832A83E0E0F0E002C0FB01BC010A
:103C9000DB0112968D919C9113970097B9F79B01C8
:103CA0002E5F3F4F8D919C911197820F931F4091F2
:103CB0008C0B50918D0B4817590779F4309729F4E4
:103CC00010928F0B10928E0B02C013821282225020
:103CD000304030938D0B20938C0BDF91CF91089562
:103CE0008F929F92AF92BF92CF92DF92EF92FF920C
:103CF0000F931F93CF93DF938C01CB010115110517
:103D000029F40E943D1D082F192FB5C0D801129724
:103D10009801260F371F2A173B0708F4AAC0ED9019
:103D2000FC901197E616F706D0F045E0E416F10492
:103D300008F4A1C0A701445050404617570708F4A3
:103D40009AC0A70142505040461B570BF9014193BE
:103D500051936D937C93CF010E94D71D8CC05B0162
:103D6000AE18BF0848018E0C9F1CE0918E0BF0919D
:103D70008F0BCC24DD24C0E0D0E041C0E815F9056C
:103D800099F560817181AB014E5F5F4F4A155B050C
:103D900058F1AB014A195B09CC24DD246894C1F8C1
:103DA000C40ED51E8280A380E5E0CE16D10448F073
:103DB000F9018282A3825183408311969C938E9352
:103DC00009C0C7010296860F971F11969C938E9388
:103DD000E82DFA2D209719F0FB83EA834CC0F0936D
:103DE0008F0BE0938E0B47C040815181C416D506DE
:103DF00008F46A01EF0152814381E52FF42F3097D7
:103E000009F0BCCF40918C0B50918D0B4815590592
:103E1000E9F4C816D906D0F4409193025091940267
:103E20004115510541F44DB75EB760918F02709115
:103E30009002461B570B24173507D8F430938D0B8F
:103E400020938C0B11969C938E9315C00E943D1D60
:103E5000C82EE6016E01D92EE601209751F08C2D77
:103E6000B801A7010E94491FC8010E94D71D860101
:103E700002C000E010E0C801DF91CF911F910F91C7
:103E8000FF90EF90DF90CF90BF90AF909F908F907A
:103E90000895FB01DC0102C001900D924150504099
:083EA000D8F70895F894FFCF54
:103EA8007374645F6D7367732F54696D6500726F07
:103EB8007373657269616C5F6D7367732F546F708C
:103EC8006963496E666F007374645F6D7367732FFF
:103ED800537472696E6700726F735F726C3530303D
:103EE80078612F66726F6D41726475696E6F5F6D70
:103EF800736700726F735F726C35303078612F743E
:103F08006F41726475696E6F5F6D7367006172648B
:103F180075696E6F546F524F535F74706300524FE0
:103F280053546F41726475696E6F5F7470630020DB
:103F380000900B00008403DC0508071405E803342F
:103F4800003500A4066C07DC051405FE0006000514
:103F58000009000A000800010003001600DC05E75C
:103F680003FFFF00000000C90D000000005C05C54C
:103F78000146020000000037015A01C2010000009A
:103F8800006F0400000000C40576074902726F73D1
:103F980073657269616C5F6D7367732F52657175B4
:103FA800657374506172616D0000000000B8064CC2
:103FB800028F02000000009202B5021D03000000FB
:103FC80000D204E604E90400000000DA06200348F1
:103FD80004000000009B18431C3618651849188710
:023FE8001800BF
:00000001FF
